:1000000045C0000061C000005FC000005DC000008E
:100010005BC0000059C0000057C0000055C0000080
:1000200053C00000A2C000004FC000004DC000003F
:100030004BC0000049C0000047C0000045C00000A0
:1000400044C0000041C0000069C000003DC0000085
:100050003BC0000039C0000037C0000035C00000C0
:1000600033C0000031C000002FC000002DC00000D0
:100070002BC0000029C0000027C0000025C00000E0
:1000800023C0000021C000001FC0000011241FBEBB
:10009000CFEFD0E1DEBFCDBF12E0A0E0B1E0EAE1FA
:1000A000F8E100E00BBF02C007900D92A231B1074A
:1000B000D9F722E0A2E1B2E001C01D92AB3AB2074B
:1000C000E1F785D70C940B0C9BCF1F920F920FB6C4
:1000D0000F9211240BB60F922F933F934F935F9380
:1000E0006F937F938F939F93AF93BF93EF93FF9300
:1000F00086D682E882BFFF91EF91BF91AF919F9129
:100100008F917F916F915F914F913F912F910F90C0
:100110000BBE0F900FBE0F901F9018951F920F925D
:100120000FB60F9211240BB60F922F933F934F935C
:100130005F936F937F938F939F93AF93BF93EF934F
:10014000FF93B4D7FF91EF91BF91AF919F918F91A2
:100150007F916F915F914F913F912F910F900BBEC7
:100160000F900FBE0F901F9018951F920F920FB611
:100170000F9211240BB60F922F933F934F935F93DF
:100180006F937F938F939F93AF93BF93EF93FF935F
:10019000F4D326D3FF91EF91BF91AF919F918F91AF
:1001A0007F916F915F914F913F912F910F900BBE77
:1001B0000F900FBE0F901F9018957FD117D06AD760
:1001C00080E091E09093A8028093A7024ED756D783
:1001D000789480E06FD180E067D180E05FC10895BE
:1001E0001ED1EDD3F2D3FDD3E6C0089520E049E35C
:1001F00050E06AE370E086E292E0F9D321E049E35F
:1002000050E06AE370E08EE192E0F1D322E049E34E
:1002100050E06AE370E088E192E0E9D323E049E34B
:1002200050E06AE370E08DE292E0E1D316C40895F5
:100230003ED180932C028130E9F030F0823081F1A0
:10024000833009F443C0089586E292E0DDD3811142
:1002500006C0CFD481E080932C022CC1089588E1A0
:1002600092E0D2D3811147C06AD410922C0280E070
:1002700021C1089586E292E0C7D3811106C09AD4C5
:1002800082E080932C0216C1089588E192E0BCD3ED
:10029000811131C054D410922C0280E00BC108951A
:1002A00086E292E0B1D3811106C084D483E08093CA
:1002B0002C0200C1089588E192E0A6D381111BC0F1
:1002C0003ED410922C0280E0F5C0089586E292E0C0
:1002D0009BD3811106C033D410922C0280E0EAC077
:1002E000089588E192E090D3811105C028D410923E
:1002F0002C0280E0DFC0089586E292E085D3811170
:100300000AC058D44BD240913B0260913A0280918E
:100310003602B1C108958EE192E076D381110AC010
:1003200049D44DD240913B0260913A02809136020D
:10033000A2C1089588E192E067D3811117C059D412
:100340001ED6809136028093390290913A029093A2
:100350003E0220913B0220933F02811104C0911183
:1003600002C0222319F081E08093120208959FD0E9
:1003700080932C0290D08530E9F480912C0281305A
:1003800051F028F0823059F0833069F00EC081E0DE
:1003900080932C020AC082E080932C0206C083E086
:1003A00080932C0202C010922C0280912C0282D0E9
:1003B00080E074C00895CF93DF939FD6882361F1C6
:1003C00099D69ED6EC016DD08093250269E171E04B
:1003D000CE010DD7892B29F41092250280E064D03C
:1003E0001BC067E271E0CE0102D7892B41F482E3A2
:1003F00091E006D781E08093250256D00DC06CE3D2
:1004000071E0CE01F4D6892B39F487E491E0F8D677
:1004100082E08093250248D0DF91CF91089541D0AA
:1004200080932502C8DF809125028130A1F018F069
:10043000823009F10895FCDE8DE292E0E5D281116F
:1004400029C0B8D310922C0280E034D081E0809390
:1004500025022AC008958BDF8DE292E0D5D281116A
:1004600019C0A8D310922C0280E024D082E080939F
:1004700025021AC0089540DF8DE292E0C5D28111B5
:1004800009C098D310922C0280E014D0109225025B
:1004900080E00AC00895809133020895809333026A
:1004A00008958091250208958093250208958091F2
:1004B0002C02089580932C0208959FD3F3D448C54D
:1004C00008951F93CF93DF93CDB7DEB76E970FB626
:1004D000F894DEBF0FBECDBFEADF182F85E1E1E55E
:1004E000F1E0DE01119601900D928A95E1F7AE01DF
:1004F0004F5F5F4F62E080E022D51130B1F028F00D
:10050000123019F1133089F13FC08AE0E6E6F1E0DC
:10051000DE01119601900D928A95E1F7AE014F5FD1
:100520005F4F63E081E00BD52FC08AE0E0E7F1E0A8
:10053000DE01119601900D928A95E1F7AE014F5FB1
:100540005F4F63E081E0FBD41FC08AE0EAE7F1E09F
:10055000DE01119601900D928A95E1F7AE014F5F91
:100560005F4F63E081E0EBD40FC08AE0E4E8F1E0A4
:10057000DE01119601900D928A95E1F7AE014F5F71
:100580005F4F63E081E0DBD46E960FB6F894DEBF78
:100590000FBECDBFDF91CF911F9108951F93CF93D1
:1005A000DF93CDB7DEB76E970FB6F894DEBF0FBE00
:1005B000CDBF7DDF182F80E1EEE8F1E0DE0111967E
:1005C00001900D928A95E1F7AE014F5F5F4F62E0B7
:1005D00080E0B5D41130B1F028F0123019F11330A9
:1005E00089F13FC081E1EEE9F1E0DE011196019071
:1005F0000D928A95E1F7AE014F5F5F4F63E081E0B6
:100600009ED42FC081E1EFEAF1E0DE011196019066
:100610000D928A95E1F7AE014F5F5F4F63E081E095
:100620008ED41FC081E1E0ECF1E0DE011196019073
:100630000D928A95E1F7AE014F5F5F4F63E081E075
:100640007ED40FC082E1E1EDF1E0DE011196019070
:100650000D928A95E1F7AE014F5F5F4F63E081E055
:100660006ED46E960FB6F894DEBF0FBECDBFDF918D
:10067000CF911F910895DF92EF92FF920F931F93F6
:10068000CF93DF93CDB7DEB76E970FB6F894DEBF8A
:100690000FBECDBFF82EE62ED42E89E2F89E912D06
:1006A000112492959F7024E63F2D929F30191124BA
:1006B000689F812D112482958F70962F829F9019AB
:1006C0001124892F90E0239F800D911D112492D336
:1006D00089E1E3EEF1E08E010F5F1F4FD801019039
:1006E0000D928A95E1F7A80162E080E028D41F927C
:1006F000DF921F92EF921F92FF928CEF91E09F93F7
:100700008F931F930F93ACD5A80163E081E017D4BA
:100710000FB6F894DEBF0FBECDBF6E960FB6F8943D
:10072000DEBF0FBECDBFDF91CF911F910F91FF9024
:10073000EF90DF900895CF93BADEC82F20D4C13058
:1007400041F028F0C23041F0C33049F00AC01DD456
:1007500008C08EE120D405C08CE31DD402C084E61D
:100760001AD4CF91089580E016C40895CF939FDEE8
:10077000C82F05D4C13041F028F0C23041F0C33059
:1007800049F00AC002D408C08EE105D405C08CE34C
:1007900002D402C084E6FFD3CF910895809136023F
:1007A0008F5F80933602883110F0109236024091AC
:1007B0003B0260913A02809136025DCF08958091AC
:1007C0003A028F5F80933A028C3310F010923A0213
:1007D00040913B0260913A02809136024CCF0895DD
:1007E00080911202882309F4C7C08EE1D4D380918E
:1007F0003C0290913D02009709F059C087EE93E0CA
:1008000090933D0280933C02909335028093340292
:1008100080913F0281113AC08BE380933F02809325
:100820003B0280913E02811120C08BE380933E0207
:1008300080933A0280913902811106C087E180934A
:1008400039028093360278C090E0019728E130E0C9
:10085000B90159D4809339028091360290E0019712
:10086000B90151D48093360267C090E001972CE320
:1008700030E0B90148D480933E0280913A0290E082
:100880000197B90140D480933A0256C090E0019795
:100890002CE330E0B90137D480933F0280913B02D2
:1008A00090E00197B9012FD480933B0245C0AC0181
:1008B000415051099A0136952795369527953695D9
:1008C0002795A5ECB0E24ED4929582958F7089273A
:1008D0009F708927E8EEF3E08E9F90018F9F300D87
:1008E0009E9F300D1124CA01821B930B90933D02F1
:1008F00080933C024091340250913502415051099D
:100900009A013695279536952795369527952AD4B9
:10091000929582958F7089279F7089278E9F90016D
:100920008F9F300D9E9F300D1124CA01821B930BA7
:1009300090933502809334028091390281111CC05A
:1009400080913E02811118C080913F02811114C034
:1009500080913C0290913D02892B71F416D3EFD027
:10096000109212021092360210923A0210923B023A
:1009700010923502109234020895809134029091C1
:10098000350201969093350280933402883E93405D
:10099000A8F01092350210923402809137029091A3
:1009A0003802019690933802809337028530910582
:1009B00029F474DD1092380210923702089571DD27
:1009C000811102C0B8DE7DCD08956BDD823041F427
:1009D000CADE40913B0260913A02809136024BCED2
:1009E00008955FDD813011F4C1DED8CD0895FC019A
:1009F000CB017183608353834283248331E0358349
:100A0000422F61E0F0C20895CF93DF93EC016C8137
:100A10008A819B8120D381110CC09D81913049F442
:100A20008FE39CE90197F1F700C000001D8280E090
:100A300011C0882361F08D8181110BC08FE39CE987
:100A40000197F1F700C0000081E08D8303C082E0D0
:100A500001C082E0DF91CF9108958EB583608EBD95
:100A60008EB588618EBD8FB582608FBD89EF90E0B5
:100A700097BD86BD87B3806287BB08958FB58068B8
:100A80008FBD08958FB58F738FBD089584369105FE
:100A900028F0893823E1920720F405C084E690E02D
:100AA00002C088E893E19C0140E050E060E970ED0D
:100AB00083E090E03BD32150310937BD26BD86B598
:100AC00097B5969587959BBD8ABD089586E194E07C
:100AD000DDDF2FEF81EE94E0215080409040E1F780
:100AE00000C000001DBC1CBC86E295E0CFDF2FEFEC
:100AF00081EE94E0215080409040E1F700C000007A
:100B00001DBC1CBC8FE196E0C1DF2FEF81EE94E0AD
:100B1000215080409040E1F700C000001DBC1CBC8B
:100B20008DE298E0B3DF2FEF81EE94E0215080401A
:100B30009040E1F700C000001DBC1CBC08959EDF82
:100B40008DE298E0A3DF2FEF81EE94E0215080400A
:100B50009040E1F700C000001DBC1CBC8FE196E096
:100B600095DF2FEF81EE94E0215080409040E1F737
:100B700000C000001DBC1CBC86E295E087DF2FEFA3
:100B800081EE94E0215080409040E1F700C00000E9
:100B90001DBC1CBC86E194E079DF2FEF81EE94E070
:100BA000215080409040E1F700C000001DBC1CBCFB
:100BB00069CF089563DF86E194E068DF2FEF81EE6F
:100BC00094E0215080409040E1F700C000001DBC3F
:100BD0001CBC86E295E05ADF2FEF81EE94E02150B5
:100BE00080409040E1F700C000001DBC1CBC4ACF13
:100BF000089544DF6BDF46CF089582B1806F82B9DC
:100C00008FEF8093610008950F931F93CF93DF932D
:100C1000CDB7DEB72B970FB6F894DEBF0FBECDBFB2
:100C20008C018BE0EEE0F1E0DE01119601900D9277
:100C30008A95E1F78091130290E0019665E070E0FB
:100C400062D280931302823009F460C028F48823B2
:100C500051F0813041F1C3C0833009F488C0843041
:100C600009F4ADC0BCC083B1806F83B998013695DB
:100C700027953695279536952795A5ECB0E272D243
:100C8000929582958F7089279F708927E1E0F0E027
:100C9000EC0FFD1FE80FF91F80818093620083B184
:100CA0008F7E83B99CC083B1806F83B998013695DC
:100CB000279536952795ABE7B4E154D2AC0156950C
:100CC00047959A01ADECBCEC4DD2969587959695DB
:100CD0008795969587959C01220F331F880F991F42
:100CE000880F991F880F991F820F931F9A01281B45
:100CF000390BE1E0F0E0EC0FFD1FE20FF31F808104
:100D00008093620083B18F7D83B969C083B1806FA6
:100D100083B99801ADECBCEC25D2AC015695479552
:100D200056954795569547959A011CD29695879565
:100D300096958795969587959C01220F331F880F6E
:100D4000991F880F991F880F991F820F931F9A016F
:100D5000281B390BE1E0F0E0EC0FFD1FE20FF31F61
:100D600080818093620083B18F7B83B938C083B167
:100D7000806F83B99801ADECBCECF4D19695879562
:100D800096958795969587959C01220F331F880F1E
:100D9000991F880F991F880F991F820F931F980121
:100DA000281B390BE1E0F0E0EC0FFD1FE20FF31F11
:100DB00080818093620083B18F7783B910C083B143
:100DC000806F83B980911402882321F08B858093F2
:100DD000620002C01092620083B18F7D83B92B96AE
:100DE0000FB6F894DEBF0FBECDBFDF91CF911F913C
:100DF0000F910895909316028093150208958091A3
:100E000015029091160200CF089544E060E087E358
:100E100090E0E9D046E060E087E390E0E4D047E08E
:100E200060E087E390E0DFD060E084E390E0D2C050
:100E3000089540E064E088E390E0F3C0089541E065
:100E400064E088E390E0EDC0089540E066E088E368
:100E500090E0E7C0089541E067E088E390E0E1D0EA
:100E60008FE99FE00197F1F700C00000089540E08E
:100E700067E088E390E0D5D08FE99FE00197F1F734
:100E800000C000000895682F85E390E0C7C0089572
:100E9000CF93C82FCEDFD9DFDEDF8C2FF4DFE7DF83
:100EA000CF910895B2DF8FE59AEE0197F1F700C078
:100EB000000088E3EDDF8FE19EE40197F1F700C0C9
:100EC000000088E3E5DF8FE99FE00197F1F700C0BC
:100ED000000088E3DDDF88E3DBDF88E0D9DF81E045
:100EE000D7DF86E0D5DF8CE0D3CF0895CF93C82F2E
:100EF000A6DFABDFB0DF8C2FC6DFB9DFCF9108955F
:100F00000F931F93CF93DF938C01C0E0D0E002C01A
:100F1000EDDF2196F801EC0FFD1F80818111F8CFE4
:100F2000DF91CF911F910F9108956F70817090E4C0
:100F3000899F600D1124862F8058AACF0895CF93E2
:100F4000DF93EA01F2DFCE01DBDFDF91CF9108957D
:100F5000EAE8F0E08081836080838081886180831B
:100F6000EBE8F0E080818260808389EF90E09093ED
:100F700081008093800082B1886082B90895EBE897
:100F8000F0E08081806880830895EBE8F0E0808164
:100F90008F7380830895853608F084E64091800041
:100FA000509181004F5F5F4F849F9001859F300D6E
:100FB00011243695279536952795ABE7B4E1D2D025
:100FC0009695879590938700809386000895F5D82D
:100FD00007D9FECF611104C02FEFFC0120830895D3
:100FE000FC011082089561110CC0FC01508121E0C8
:100FF00030E002C0220F331F4A95E2F7252B2083F1
:101000000895FC01508121E030E002C0220F331F1F
:101010004A95E2F72095252320830895FC016083FB
:101020000895FC01413059F4208181E090E002C034
:10103000880F991F6A95E2F7822B8083089590812B
:1010400021E030E002C0220F331F6A95E2F72095BD
:10105000292320830895FC01808190E002C09595AA
:1010600087956A95E2F78170089583B7856083BF9D
:1010700087B7816087BF82E882BF089585B58360A6
:1010800085BD87B7806887BF85B5886085BD89EFD6
:1010900083BD08958AB188618AB98BB182608BB9AA
:1010A0008AB180688AB98FEC89B908959CB19A3069
:1010B00091F4E0911702AE2FB0E0A05CBD4F9C937D
:1010C000EF5FF0E0E05CFD4F10821092170281E0CC
:1010D0008093A402089580911702E82FF0E0E05C6D
:1010E000FD4F90838F5F8093170208955D9BFECF25
:1010F0008CB908951092A40208958091A4020895D5
:1011000080E492E0089597FB072E16F4009406D031
:1011100077FD08D036D007FC05D03EF49095819538
:101120009F4F0895709561957F4F0895052E97FB09
:1011300016F400940FD057FD05D037D007FC02D02D
:1011400046F408C050954095309521953F4F4F4F3C
:101150005F4F089590958095709561957F4F8F4F63
:101160009F4F0895A29FB001B39FC001A39F700D30
:10117000811D1124911DB29F700D811D1124911D9F
:101180000895AA1BBB1B51E107C0AA1FBB1FA617CE
:10119000B70710F0A61BB70B881F991F5A95A9F720
:1011A00080959095BC01CD010895A1E21A2EAA1B4D
:1011B000BB1BFD010DC0AA1FBB1FEE1FFF1FA21707
:1011C000B307E407F50720F0A21BB30BE40BF50B04
:1011D000661F771F881F991F1A9469F7609570958D
:1011E000809590959B01AC01BD01CF010895FB0155
:1011F000DC018D91019080190110D9F3990B0895AC
:101200000F931F93CF93DF93E091A702F091A80271
:10121000238121FF1BC08C01D0E0C0E0F801819147
:101220008F016091A7027091A802DB011896ED91E1
:10123000FC911997882331F00995892B79F3DFEF19
:10124000CFEFECCF8AE00995892B19F08FEF9FEF54
:1012500002C08D2F9C2FDF91CF911F910F91089588
:101260000F931F93CF93DF93CDB7DEB72E970FB6B3
:10127000F894DEBF0FBECDBF0D891E8986E08C833A
:101280001A8309838FEF9FE79E838D83AE01475EAC
:101290005F4F6F89788DCE01019610D0EF81F88570
:1012A000E00FF11F10822E960FB6F894DEBF0FBE2E
:1012B000CDBFDF91CF911F910F9108952F923F9253
:1012C0004F925F926F927F928F929F92AF92BF9256
:1012D000CF92DF92EF92FF920F931F93CF93DF9302
:1012E000CDB7DEB72B970FB6F894DEBF0FBECDBFDC
:1012F0006C017B018A01FC0117821682838181FFC8
:10130000BFC1CE0101963C01F6019381F70193FD27
:10131000859193FF81917F01882309F4ADC18532C6
:1013200039F493FD859193FF81917F01853221F4FA
:10133000B60190E0D6D1E8CF912C212C312CFFE1E1
:10134000F315D8F08B3279F038F4803279F08332AB
:10135000A1F4232D20611DC08D3261F0803369F42A
:10136000232D216016C0832D8260382EE32DE4608A
:101370003E2E2AC0F32DF8601DC037FC2DC020ED95
:10138000280F2A3040F08E32B9F436FC75C1232D77
:101390002064322E19C036FE06C08AE0989E200DC9
:1013A0001124922E11C0EAE02E9E200D1124222E2F
:1013B000F32DF0623F2E08C08C3621F4832D806817
:1013C000382E02C0883641F4F70193FD859193FFD2
:1013D00081917F018111B3CF982F9F7D95549330D8
:1013E00028F40C5F1F4F9FE399830DC0833631F0C3
:1013F000833771F0833509F055C020C0F801808132
:1014000089830E5F1F4F88248394912C530112C04F
:101410002801F2E04F0E511CF801A080B18036FE89
:1014200003C0692D70E002C06FEF7FEFC5014ED1A0
:101430004C018201F32DFF773F2E15C0280122E0D9
:10144000420E511CF801A080B18036FE03C0692D08
:1014500070E002C06FEF7FEFC5012DD14C01F32D7D
:10146000F0683F2E820133FC19C0822D90E088166F
:101470009906A0F4B60180E290E033D12A94F5CF2A
:10148000F50137FC859137FE81915F01B60190E04F
:1014900028D121102A9421E0821A91088114910404
:1014A00079F7E1C0843611F0893639F5F80137FE55
:1014B00007C060817181828193810C5F1F4F08C0DA
:1014C00060817181072E000C880B990B0E5F1F4FF6
:1014D000F32DFF763F2E97FF09C09095809570956C
:1014E00061957F4F8F4F9F4FF0683F2E2AE030E08D
:1014F000A30133D1882E861844C0853731F4232DBB
:101500002F7EB22E2AE030E025C0932D997FB92E90
:101510008F36C1F018F4883579F0AEC0803719F0F5
:10152000883721F0A9C0E92FE061BE2EB4FE0DC0BE
:10153000FB2DF460BF2E09C034FE0AC0292F26609F
:10154000B22E06C028E030E005C020E130E002C045
:1015500020E132E0F801B7FE07C06081718182812D
:1015600093810C5F1F4F06C06081718180E090E025
:101570000E5F1F4FA301F1D0882E8618FB2DFF7739
:101580003F2E36FE0DC0232D2E7FA22E891458F437
:1015900034FE0BC032FC09C0832D8E7EA82E05C000
:1015A000B82CA32C03C0B82C01C0B92CA4FE0FC0CA
:1015B000FE01E80DF11D8081803321F49A2D997E82
:1015C000A92E09C0A2FE06C0B394B39404C08A2D0C
:1015D000867809F0B394A3FC10C0A0FE06C0B21434
:1015E00080F4280C922C9B180DC0B21458F4B6014C
:1015F00080E290E076D0B394F8CFB21418F42B18B0
:1016000002C0982C212CA4FE0FC0B60180E390E00C
:1016100068D0A2FE16C0A1FC03C088E790E002C01B
:1016200088E590E0B6010CC08A2D867851F0A1FEC5
:1016300002C08BE201C080E2A7FC8DE2B60190E01F
:1016400050D0891430F4B60180E390E04AD09A94E7
:10165000F8CF8A94F301E80DF11D8081B60190E086
:1016600040D08110F6CF222009F44ECEB60180E2A0
:1016700090E037D02A94F7CFF6018681978102C097
:101680008FEF9FEF2B960FB6F894DEBF0FBECDBF46
:10169000DF91CF911F910F91FF90EF90DF90CF904E
:1016A000BF90AF909F908F907F906F905F904F9082
:1016B0003F902F900895FC010590615070400110FB
:1016C000D8F7809590958E0F9F1F0895FC0161506B
:1016D000704001900110D8F7809590958E0F9F1F54
:1016E00008950F931F93CF93DF93FB01238121FD77
:1016F00003C08FEF9FEF2CC022FF16C04681578199
:10170000248135814217530744F4A081B1819D01A2
:101710002F5F3F4F318320838C93268137812F5F4A
:101720003F4F3783268314C08B01EC01FB010084FB
:10173000F185E02D0995892BE1F6D80116968D915A
:101740009C911797019617969C938E931697CE01AE
:10175000DF91CF911F910F910895FA01AA272830A8
:1017600051F1203181F1E8946F936E7F6E5F7F4F6E
:101770008F4F9F4FAF4FB1E03ED0B4E03CD0670FEA
:10178000781F891F9A1FA11D680F791F8A1F911D3D
:10179000A11D6A0F711D811D911DA11D20D009F48D
:1017A00068943F912AE0269F11243019305D3193CF
:1017B000DEF6CF010895462F4770405D4193B3E0B8
:1017C0000FD0C9F7F6CF462F4F70405D4A3318F05F
:1017D000495D31FD4052419302D0A9F7EACFB4E010
:1017E000A6959795879577956795BA95C9F70097C8
:1017F0006105710508959B01AC010A2E0694579569
:10180000479537952795BA95C9F7620F731F841FBF
:0A181000951FA01D0895F894FFCF66
:10181A0000000002000000007608000000003F06F9
:10182A005B4F666D7D277F6780434F4E54524F4C06
:10183A005F4D4F44450A004155544F5F4D4F444553
:10184A000A004175746F5F4D6F64650054696D6578
:10185A005F4D6F64650A0054696D655F4D6F64651D
:10186A0000436F6E74726F6C204D6F646520202088
:10187A0020202020200020202053544F50202000D8
:10188A00202020204C4F57202000202020204D4986
:10189A004420200020202048494748202000204199
:1018AA0075746F204D6F6465202020202000202051
:1018BA002053544F50202020202020202020002078
:1018CA002020204C4F57202020202020202020009C
:1018DA00202020204D494420202020202020202084
:1018EA00002020204849474820202020202020206E
:1018FA002020002054696D65204D6F6465202020EA
:10190A0020202020202020202020200020253032C6
:10191A00643A253032643A2530326420202020206F
:02192A0020009B
:00000001FF
